{
  "_format": "hh-sol-artifact-1",
  "contractName": "BasepayProcessor",
  "sourceName": "contracts/Basepayprocessor.sol",
  "abi": [
    {
      "inputs": [
        {
          "internalType": "address",
          "name": "_usdc",
          "type": "address"
        }
      ],
      "stateMutability": "nonpayable",
      "type": "constructor"
    },
    {
      "inputs": [
        {
          "internalType": "address",
          "name": "to",
          "type": "address"
        },
        {
          "internalType": "uint256",
          "name": "amount",
          "type": "uint256"
        },
        {
          "internalType": "uint256",
          "name": "deadline",
          "type": "uint256"
        },
        {
          "internalType": "uint8",
          "name": "v",
          "type": "uint8"
        },
        {
          "internalType": "bytes32",
          "name": "r",
          "type": "bytes32"
        },
        {
          "internalType": "bytes32",
          "name": "s",
          "type": "bytes32"
        }
      ],
      "name": "pay",
      "outputs": [],
      "stateMutability": "nonpayable",
      "type": "function"
    },
    {
      "inputs": [],
      "name": "usdc",
      "outputs": [
        {
          "internalType": "contract IERC20Permit",
          "name": "",
          "type": "address"
        }
      ],
      "stateMutability": "view",
      "type": "function"
    }
  ],
  "bytecode": "0x60a060405234801561001057600080fd5b5060405161049a38038061049a83398101604081905261002f91610040565b6001600160a01b0316608052610070565b60006020828403121561005257600080fd5b81516001600160a01b038116811461006957600080fd5b9392505050565b6080516103fc61009e6000396000818160400152818160f101528181610157015261024701526103fc6000f3fe608060405234801561001057600080fd5b50600436106100365760003560e01c80633e413bee1461003b57806359844d8b1461007e575b600080fd5b6100627f000000000000000000000000000000000000000000000000000000000000000081565b6040516001600160a01b03909116815260200160405180910390f35b61009161008c3660046102c7565b610093565b005b60006127106100a461012c8861034b565b6100ae9190610368565b60405163d505accf60e01b8152336004820152306024820152604481018890526064810187905260ff8616608482015260a4810185905260c481018490529091507f00000000000000000000000000000000000000000000000000000000000000006001600160a01b03169063d505accf9060e401600060405180830381600087803b15801561013d57600080fd5b505af1158015610151573d6000803e3d6000fd5b505050507f00000000000000000000000000000000000000000000000000000000000000006001600160a01b03166323b872dd3389848a610192919061038a565b6040516001600160e01b031960e086901b1681526001600160a01b03938416600482015292909116602483015260448201526064016020604051808303816000875af11580156101e6573d6000803e3d6000fd5b505050506040513d601f19601f8201168201806040525081019061020a919061039d565b5080156102be576040516323b872dd60e01b815233600482015273dcaf4cbac0246de4e1001444b02cbe814e4bafa46024820152604481018290527f00000000000000000000000000000000000000000000000000000000000000006001600160a01b0316906323b872dd906064016020604051808303816000875af1158015610298573d6000803e3d6000fd5b505050506040513d601f19601f820116820180604052508101906102bc919061039d565b505b50505050505050565b60008060008060008060c087890312156102e057600080fd5b86356001600160a01b03811681146102f757600080fd5b95506020870135945060408701359350606087013560ff8116811461031b57600080fd5b9598949750929560808101359460a0909101359350915050565b634e487b7160e01b600052601160045260246000fd5b808202811582820484141761036257610362610335565b92915050565b60008261038557634e487b7160e01b600052601260045260246000fd5b500490565b8181038181111561036257610362610335565b6000602082840312156103af57600080fd5b815180151581146103bf57600080fd5b939250505056fea26469706673582212204097cc313af7309ad1c071e89abe88314da6fd8e9df6f63f6f2fe56ad523dadd64736f6c63430008140033",
  "linkReferences": {},
  "deployedLinkReferences": {}
}