{
  "_format": "hh-sol-artifact-1",
  "contractName": "BasepayProcessor",
  "sourceName": "contracts/Basepayprocessor.sol",
  "abi": [
    {
      "inputs": [
        {
          "internalType": "address",
          "name": "_usdc",
          "type": "address"
        }
      ],
      "stateMutability": "nonpayable",
      "type": "constructor"
    },
    {
      "anonymous": false,
      "inputs": [
        {
          "indexed": true,
          "internalType": "address",
          "name": "from",
          "type": "address"
        },
        {
          "indexed": true,
          "internalType": "address",
          "name": "to",
          "type": "address"
        },
        {
          "indexed": false,
          "internalType": "uint256",
          "name": "totalAmount",
          "type": "uint256"
        },
        {
          "indexed": false,
          "internalType": "uint256",
          "name": "recipientAmount",
          "type": "uint256"
        },
        {
          "indexed": false,
          "internalType": "uint256",
          "name": "fee",
          "type": "uint256"
        }
      ],
      "name": "Payment",
      "type": "event"
    },
    {
      "inputs": [],
      "name": "BP",
      "outputs": [
        {
          "internalType": "uint256",
          "name": "",
          "type": "uint256"
        }
      ],
      "stateMutability": "view",
      "type": "function"
    },
    {
      "inputs": [],
      "name": "FEE_BP",
      "outputs": [
        {
          "internalType": "uint256",
          "name": "",
          "type": "uint256"
        }
      ],
      "stateMutability": "view",
      "type": "function"
    },
    {
      "inputs": [],
      "name": "TREASURY",
      "outputs": [
        {
          "internalType": "address",
          "name": "",
          "type": "address"
        }
      ],
      "stateMutability": "view",
      "type": "function"
    },
    {
      "inputs": [
        {
          "internalType": "uint256",
          "name": "amount",
          "type": "uint256"
        }
      ],
      "name": "calculateFee",
      "outputs": [
        {
          "internalType": "uint256",
          "name": "fee",
          "type": "uint256"
        },
        {
          "internalType": "uint256",
          "name": "recipientAmount",
          "type": "uint256"
        }
      ],
      "stateMutability": "pure",
      "type": "function"
    },
    {
      "inputs": [
        {
          "internalType": "address",
          "name": "to",
          "type": "address"
        },
        {
          "internalType": "uint256",
          "name": "amount",
          "type": "uint256"
        }
      ],
      "name": "pay",
      "outputs": [],
      "stateMutability": "nonpayable",
      "type": "function"
    },
    {
      "inputs": [],
      "name": "usdc",
      "outputs": [
        {
          "internalType": "contract IERC20",
          "name": "",
          "type": "address"
        }
      ],
      "stateMutability": "view",
      "type": "function"
    }
  ],
  "bytecode": "0x60a060405234801561001057600080fd5b506040516105f03803806105f083398101604081905261002f91610040565b6001600160a01b0316608052610070565b60006020828403121561005257600080fd5b81516001600160a01b038116811461006957600080fd5b9392505050565b6080516105586100986000396000818160a40152818161023e015261033501526105586000f3fe608060405234801561001057600080fd5b50600436106100625760003560e01c80632d2c5565146100675780633e413bee1461009f57806399a5d747146100c65780639cfdbd5e146100ee578063af83176814610105578063c40768761461010e575b600080fd5b610082736b82a9e45d4331c35ffc0a38fd084ca508ee748181565b6040516001600160a01b0390911681526020015b60405180910390f35b6100827f000000000000000000000000000000000000000000000000000000000000000081565b6100d96100d4366004610440565b610123565b60408051928352602083019190915201610096565b6100f761271081565b604051908152602001610096565b6100f761012c81565b61012161011c366004610459565b610152565b005b60008061271061013561012c856104a7565b61013f91906104c4565b915061014b82846104e6565b9050915091565b6001600160a01b0382166101a15760405162461bcd60e51b8152602060048201526011602482015270125b9d985b1a59081c9958da5c1a595b9d607a1b60448201526064015b60405180910390fd5b600081116101e65760405162461bcd60e51b81526020600482015260126024820152710416d6f756e74206d757374206265203e20360741b6044820152606401610198565b60006127106101f761012c846104a7565b61020191906104c4565b9050600061020f82846104e6565b6040516323b872dd60e01b81523360048201526001600160a01b038681166024830152604482018390529192507f0000000000000000000000000000000000000000000000000000000000000000909116906323b872dd906064016020604051808303816000875af1158015610289573d6000803e3d6000fd5b505050506040513d601f19601f820116820180604052508101906102ad91906104f9565b6102f95760405162461bcd60e51b815260206004820152601c60248201527f5472616e7366657220746f20726563697069656e74206661696c6564000000006044820152606401610198565b81156103ec576040516323b872dd60e01b8152336004820152736b82a9e45d4331c35ffc0a38fd084ca508ee74816024820152604481018390527f00000000000000000000000000000000000000000000000000000000000000006001600160a01b0316906323b872dd906064016020604051808303816000875af1158015610386573d6000803e3d6000fd5b505050506040513d601f19601f820116820180604052508101906103aa91906104f9565b6103ec5760405162461bcd60e51b8152602060048201526013602482015272119959481d1c985b9cd9995c8819985a5b1959606a1b6044820152606401610198565b60408051848152602081018390529081018390526001600160a01b0385169033907ffc8dd32b1cfbf2c565436049e9e556251a12304b0c3e624bc5e3b205692cf2dc9060600160405180910390a350505050565b60006020828403121561045257600080fd5b5035919050565b6000806040838503121561046c57600080fd5b82356001600160a01b038116811461048357600080fd5b946020939093013593505050565b634e487b7160e01b600052601160045260246000fd5b80820281158282048414176104be576104be610491565b92915050565b6000826104e157634e487b7160e01b600052601260045260246000fd5b500490565b818103818111156104be576104be610491565b60006020828403121561050b57600080fd5b8151801515811461051b57600080fd5b939250505056fea264697066735822122014b6ebe0cc80d0b33e5a675d09ff425ebf83bd66b96f635adb51dbd12783371364736f6c63430008140033",
  "linkReferences": {},
  "deployedLinkReferences": {}
}